{
  "_format": "hh-sol-artifact-1",
  "contractName": "NFTMarketplace",
  "sourceName": "contracts/NFTMarketplace.sol",
  "abi": [
    {
      "inputs": [],
      "stateMutability": "nonpayable",
      "type": "constructor"
    },
    {
      "anonymous": false,
      "inputs": [
        {
          "indexed": true,
          "internalType": "address",
          "name": "owner",
          "type": "address"
        },
        {
          "indexed": true,
          "internalType": "address",
          "name": "approved",
          "type": "address"
        },
        {
          "indexed": true,
          "internalType": "uint256",
          "name": "tokenId",
          "type": "uint256"
        }
      ],
      "name": "Approval",
      "type": "event"
    },
    {
      "anonymous": false,
      "inputs": [
        {
          "indexed": true,
          "internalType": "address",
          "name": "owner",
          "type": "address"
        },
        {
          "indexed": true,
          "internalType": "address",
          "name": "operator",
          "type": "address"
        },
        {
          "indexed": false,
          "internalType": "bool",
          "name": "approved",
          "type": "bool"
        }
      ],
      "name": "ApprovalForAll",
      "type": "event"
    },
    {
      "anonymous": false,
      "inputs": [
        {
          "indexed": false,
          "internalType": "uint256",
          "name": "_fromTokenId",
          "type": "uint256"
        },
        {
          "indexed": false,
          "internalType": "uint256",
          "name": "_toTokenId",
          "type": "uint256"
        }
      ],
      "name": "BatchMetadataUpdate",
      "type": "event"
    },
    {
      "anonymous": false,
      "inputs": [
        {
          "indexed": true,
          "internalType": "uint256",
          "name": "tokenId",
          "type": "uint256"
        },
        {
          "indexed": false,
          "internalType": "address",
          "name": "seller",
          "type": "address"
        },
        {
          "indexed": false,
          "internalType": "address",
          "name": "owner",
          "type": "address"
        },
        {
          "indexed": false,
          "internalType": "uint256",
          "name": "price",
          "type": "uint256"
        },
        {
          "indexed": false,
          "internalType": "bool",
          "name": "sold",
          "type": "bool"
        }
      ],
      "name": "MarketItemCreated",
      "type": "event"
    },
    {
      "anonymous": false,
      "inputs": [
        {
          "indexed": false,
          "internalType": "uint256",
          "name": "_tokenId",
          "type": "uint256"
        }
      ],
      "name": "MetadataUpdate",
      "type": "event"
    },
    {
      "anonymous": false,
      "inputs": [
        {
          "indexed": true,
          "internalType": "address",
          "name": "from",
          "type": "address"
        },
        {
          "indexed": true,
          "internalType": "address",
          "name": "to",
          "type": "address"
        },
        {
          "indexed": true,
          "internalType": "uint256",
          "name": "tokenId",
          "type": "uint256"
        }
      ],
      "name": "Transfer",
      "type": "event"
    },
    {
      "inputs": [
        {
          "internalType": "address",
          "name": "to",
          "type": "address"
        },
        {
          "internalType": "uint256",
          "name": "tokenId",
          "type": "uint256"
        }
      ],
      "name": "approve",
      "outputs": [],
      "stateMutability": "nonpayable",
      "type": "function"
    },
    {
      "inputs": [
        {
          "internalType": "address",
          "name": "owner",
          "type": "address"
        }
      ],
      "name": "balanceOf",
      "outputs": [
        {
          "internalType": "uint256",
          "name": "",
          "type": "uint256"
        }
      ],
      "stateMutability": "view",
      "type": "function"
    },
    {
      "inputs": [
        {
          "internalType": "uint256",
          "name": "tokenId",
          "type": "uint256"
        }
      ],
      "name": "createMarketSale",
      "outputs": [
        {
          "internalType": "uint256",
          "name": "",
          "type": "uint256"
        }
      ],
      "stateMutability": "payable",
      "type": "function"
    },
    {
      "inputs": [
        {
          "internalType": "string",
          "name": "tokenURI",
          "type": "string"
        },
        {
          "internalType": "uint256",
          "name": "price",
          "type": "uint256"
        }
      ],
      "name": "createToken",
      "outputs": [
        {
          "internalType": "uint256",
          "name": "",
          "type": "uint256"
        }
      ],
      "stateMutability": "payable",
      "type": "function"
    },
    {
      "inputs": [],
      "name": "fetchItemsListed",
      "outputs": [
        {
          "components": [
            {
              "internalType": "uint256",
              "name": "tokenId",
              "type": "uint256"
            },
            {
              "internalType": "address payable",
              "name": "seller",
              "type": "address"
            },
            {
              "internalType": "address payable",
              "name": "owner",
              "type": "address"
            },
            {
              "internalType": "uint256",
              "name": "price",
              "type": "uint256"
            },
            {
              "internalType": "bool",
              "name": "sold",
              "type": "bool"
            }
          ],
          "internalType": "struct NFTMarketplace.MarketItem[]",
          "name": "",
          "type": "tuple[]"
        }
      ],
      "stateMutability": "view",
      "type": "function"
    },
    {
      "inputs": [],
      "name": "fetchMarketItems",
      "outputs": [
        {
          "components": [
            {
              "internalType": "uint256",
              "name": "tokenId",
              "type": "uint256"
            },
            {
              "internalType": "address payable",
              "name": "seller",
              "type": "address"
            },
            {
              "internalType": "address payable",
              "name": "owner",
              "type": "address"
            },
            {
              "internalType": "uint256",
              "name": "price",
              "type": "uint256"
            },
            {
              "internalType": "bool",
              "name": "sold",
              "type": "bool"
            }
          ],
          "internalType": "struct NFTMarketplace.MarketItem[]",
          "name": "",
          "type": "tuple[]"
        }
      ],
      "stateMutability": "view",
      "type": "function"
    },
    {
      "inputs": [],
      "name": "fetchMyNFTs",
      "outputs": [
        {
          "components": [
            {
              "internalType": "uint256",
              "name": "tokenId",
              "type": "uint256"
            },
            {
              "internalType": "address payable",
              "name": "seller",
              "type": "address"
            },
            {
              "internalType": "address payable",
              "name": "owner",
              "type": "address"
            },
            {
              "internalType": "uint256",
              "name": "price",
              "type": "uint256"
            },
            {
              "internalType": "bool",
              "name": "sold",
              "type": "bool"
            }
          ],
          "internalType": "struct NFTMarketplace.MarketItem[]",
          "name": "",
          "type": "tuple[]"
        }
      ],
      "stateMutability": "view",
      "type": "function"
    },
    {
      "inputs": [
        {
          "internalType": "uint256",
          "name": "tokenId",
          "type": "uint256"
        }
      ],
      "name": "fetchSingleNFT",
      "outputs": [
        {
          "components": [
            {
              "internalType": "uint256",
              "name": "tokenId",
              "type": "uint256"
            },
            {
              "internalType": "address payable",
              "name": "seller",
              "type": "address"
            },
            {
              "internalType": "address payable",
              "name": "owner",
              "type": "address"
            },
            {
              "internalType": "uint256",
              "name": "price",
              "type": "uint256"
            },
            {
              "internalType": "bool",
              "name": "sold",
              "type": "bool"
            }
          ],
          "internalType": "struct NFTMarketplace.MarketItem",
          "name": "",
          "type": "tuple"
        }
      ],
      "stateMutability": "view",
      "type": "function"
    },
    {
      "inputs": [
        {
          "internalType": "uint256",
          "name": "tokenId",
          "type": "uint256"
        }
      ],
      "name": "getApproved",
      "outputs": [
        {
          "internalType": "address",
          "name": "",
          "type": "address"
        }
      ],
      "stateMutability": "view",
      "type": "function"
    },
    {
      "inputs": [],
      "name": "getListingPrice",
      "outputs": [
        {
          "internalType": "uint256",
          "name": "",
          "type": "uint256"
        }
      ],
      "stateMutability": "view",
      "type": "function"
    },
    {
      "inputs": [
        {
          "internalType": "address",
          "name": "owner",
          "type": "address"
        },
        {
          "internalType": "address",
          "name": "operator",
          "type": "address"
        }
      ],
      "name": "isApprovedForAll",
      "outputs": [
        {
          "internalType": "bool",
          "name": "",
          "type": "bool"
        }
      ],
      "stateMutability": "view",
      "type": "function"
    },
    {
      "inputs": [],
      "name": "name",
      "outputs": [
        {
          "internalType": "string",
          "name": "",
          "type": "string"
        }
      ],
      "stateMutability": "view",
      "type": "function"
    },
    {
      "inputs": [
        {
          "internalType": "uint256",
          "name": "tokenId",
          "type": "uint256"
        }
      ],
      "name": "ownerOf",
      "outputs": [
        {
          "internalType": "address",
          "name": "",
          "type": "address"
        }
      ],
      "stateMutability": "view",
      "type": "function"
    },
    {
      "inputs": [
        {
          "internalType": "uint256",
          "name": "tokenId",
          "type": "uint256"
        },
        {
          "internalType": "uint256",
          "name": "price",
          "type": "uint256"
        }
      ],
      "name": "resellToken",
      "outputs": [
        {
          "internalType": "uint256",
          "name": "",
          "type": "uint256"
        }
      ],
      "stateMutability": "payable",
      "type": "function"
    },
    {
      "inputs": [
        {
          "internalType": "address",
          "name": "from",
          "type": "address"
        },
        {
          "internalType": "address",
          "name": "to",
          "type": "address"
        },
        {
          "internalType": "uint256",
          "name": "tokenId",
          "type": "uint256"
        }
      ],
      "name": "safeTransferFrom",
      "outputs": [],
      "stateMutability": "nonpayable",
      "type": "function"
    },
    {
      "inputs": [
        {
          "internalType": "address",
          "name": "from",
          "type": "address"
        },
        {
          "internalType": "address",
          "name": "to",
          "type": "address"
        },
        {
          "internalType": "uint256",
          "name": "tokenId",
          "type": "uint256"
        },
        {
          "internalType": "bytes",
          "name": "data",
          "type": "bytes"
        }
      ],
      "name": "safeTransferFrom",
      "outputs": [],
      "stateMutability": "nonpayable",
      "type": "function"
    },
    {
      "inputs": [
        {
          "internalType": "address",
          "name": "operator",
          "type": "address"
        },
        {
          "internalType": "bool",
          "name": "approved",
          "type": "bool"
        }
      ],
      "name": "setApprovalForAll",
      "outputs": [],
      "stateMutability": "nonpayable",
      "type": "function"
    },
    {
      "inputs": [
        {
          "internalType": "bytes4",
          "name": "interfaceId",
          "type": "bytes4"
        }
      ],
      "name": "supportsInterface",
      "outputs": [
        {
          "internalType": "bool",
          "name": "",
          "type": "bool"
        }
      ],
      "stateMutability": "view",
      "type": "function"
    },
    {
      "inputs": [],
      "name": "symbol",
      "outputs": [
        {
          "internalType": "string",
          "name": "",
          "type": "string"
        }
      ],
      "stateMutability": "view",
      "type": "function"
    },
    {
      "inputs": [
        {
          "internalType": "uint256",
          "name": "tokenId",
          "type": "uint256"
        }
      ],
      "name": "tokenURI",
      "outputs": [
        {
          "internalType": "string",
          "name": "",
          "type": "string"
        }
      ],
      "stateMutability": "view",
      "type": "function"
    },
    {
      "inputs": [
        {
          "internalType": "address",
          "name": "from",
          "type": "address"
        },
        {
          "internalType": "address",
          "name": "to",
          "type": "address"
        },
        {
          "internalType": "uint256",
          "name": "tokenId",
          "type": "uint256"
        }
      ],
      "name": "transferFrom",
      "outputs": [],
      "stateMutability": "nonpayable",
      "type": "function"
    },
    {
      "inputs": [
        {
          "internalType": "uint256",
          "name": "_listingPrice",
          "type": "uint256"
        }
      ],
      "name": "updateListingPrice",
      "outputs": [],
      "stateMutability": "payable",
      "type": "function"
    }
  ],
  "bytecode": "0x6080604052633b9aca006009553480156200001957600080fd5b506040518060400160405280601081526020016f4d657461766572736520546f6b656e7360801b815250604051806040016040528060048152602001631351551560e21b815250816000908162000071919062000140565b50600162000080828262000140565b5050600a80546001600160a01b03191633179055506200020c565b634e487b7160e01b600052604160045260246000fd5b600181811c90821680620000c657607f821691505b602082108103620000e757634e487b7160e01b600052602260045260246000fd5b50919050565b601f8211156200013b57600081815260208120601f850160051c81016020861015620001165750805b601f850160051c820191505b81811015620001375782815560010162000122565b5050505b505050565b81516001600160401b038111156200015c576200015c6200009b565b62000174816200016d8454620000b1565b84620000ed565b602080601f831160018114620001ac5760008415620001935750858301515b600019600386901b1c1916600185901b17855562000137565b600085815260208120601f198616915b82811015620001dd57888601518255948401946001909101908401620001bc565b5085821015620001fc5787850151600019600388901b60f8161c191681555b5050505050600190811b01905550565b6123e3806200021c6000396000f3fe6080604052600436106101355760003560e01c806370a08231116100ab578063b88d4fde1161006f578063b88d4fde14610331578063be9af53614610351578063c87b56dd14610364578063d9ddc8fd14610384578063e219fc75146103b1578063e985e9c5146103c457600080fd5b806370a08231146102b657806372b3b620146102d657806395d89b41146102e9578063a22cb465146102fe578063ae677aa31461031e57600080fd5b806312e85585116100fd57806312e855851461020d578063202e37401461022c57806323b872dd1461024157806342842e0e1461026157806345f8fa80146102815780636352211e1461029657600080fd5b806301ffc9a71461013a57806306fdde031461016f578063081812fc14610191578063095ea7b3146101c95780630f08efe0146101eb575b600080fd5b34801561014657600080fd5b5061015a610155366004611c85565b61040d565b60405190151581526020015b60405180910390f35b34801561017b57600080fd5b50610184610438565b6040516101669190611cf2565b34801561019d57600080fd5b506101b16101ac366004611d05565b6104ca565b6040516001600160a01b039091168152602001610166565b3480156101d557600080fd5b506101e96101e4366004611d3a565b6104f1565b005b3480156101f757600080fd5b5061020061060b565b6040516101669190611da4565b34801561021957600080fd5b506009545b604051908152602001610166565b34801561023857600080fd5b50610200610782565b34801561024d57600080fd5b506101e961025c366004611df2565b610936565b34801561026d57600080fd5b506101e961027c366004611df2565b610967565b34801561028d57600080fd5b50610200610982565b3480156102a257600080fd5b506101b16102b1366004611d05565b610b36565b3480156102c257600080fd5b5061021e6102d1366004611e2e565b610b96565b61021e6102e4366004611ed5565b610c1c565b3480156102f557600080fd5b50610184610c5f565b34801561030a57600080fd5b506101e9610319366004611f2e565b610c6e565b6101e961032c366004611d05565b610c7d565b34801561033d57600080fd5b506101e961034c366004611f6a565b610cf5565b61021e61035f366004611d05565b610d2d565b34801561037057600080fd5b5061018461037f366004611d05565b610ee5565b34801561039057600080fd5b506103a461039f366004611d05565b610ff5565b6040516101669190611fe6565b61021e6103bf366004611ff4565b61105f565b3480156103d057600080fd5b5061015a6103df366004612016565b6001600160a01b03918216600090815260056020908152604080832093909416825291909152205460ff1690565b60006001600160e01b03198216632483248360e11b14806104325750610432826111a7565b92915050565b60606000805461044790612049565b80601f016020809104026020016040519081016040528092919081815260200182805461047390612049565b80156104c05780601f10610495576101008083540402835291602001916104c0565b820191906000526020600020905b8154815290600101906020018083116104a357829003601f168201915b5050505050905090565b60006104d5826111f7565b506000908152600460205260409020546001600160a01b031690565b60006104fc82610b36565b9050806001600160a01b0316836001600160a01b03160361056e5760405162461bcd60e51b815260206004820152602160248201527f4552433732313a20617070726f76616c20746f2063757272656e74206f776e656044820152603960f91b60648201526084015b60405180910390fd5b336001600160a01b038216148061058a575061058a81336103df565b6105fc5760405162461bcd60e51b815260206004820152603d60248201527f4552433732313a20617070726f76652063616c6c6572206973206e6f7420746f60448201527f6b656e206f776e6572206f7220617070726f76656420666f7220616c6c0000006064820152608401610565565b6106068383611259565b505050565b6060600061061860075490565b9050600061062560085490565b6007546106329190612099565b90506000808267ffffffffffffffff81111561065057610650611e49565b60405190808252806020026020018201604052801561068957816020015b610676611c41565b81526020019060019003908161066e5790505b50905060005b848110156107795730600b60006106a78460016120ac565b81526020810191909152604001600020600201546001600160a01b0316036107675760006106d68260016120ac565b6000818152600b6020908152604091829020825160a0810184528154815260018201546001600160a01b039081169382019390935260028201549092169282019290925260038201546060820152600482015460ff16151560808201528551929350909185908790811061074c5761074c6120bf565b60209081029190910101526107626001866120ac565b945050505b80610771816120d5565b91505061068f565b50949350505050565b6060600061078f60075490565b905060008060005b838110156107f15733600b60006107af8460016120ac565b81526020810191909152604001600020600201546001600160a01b0316036107df576107dc6001846120ac565b92505b806107e9816120d5565b915050610797565b5060008267ffffffffffffffff81111561080d5761080d611e49565b60405190808252806020026020018201604052801561084657816020015b610833611c41565b81526020019060019003908161082b5790505b50905060005b848110156107795733600b60006108648460016120ac565b81526020810191909152604001600020600201546001600160a01b0316036109245760006108938260016120ac565b6000818152600b6020908152604091829020825160a0810184528154815260018201546001600160a01b039081169382019390935260028201549092169282019290925260038201546060820152600482015460ff161515608082015285519293509091859087908110610909576109096120bf565b602090810291909101015261091f6001866120ac565b945050505b8061092e816120d5565b91505061084c565b61094033826112c7565b61095c5760405162461bcd60e51b8152600401610565906120ee565b610606838383611345565b61060683838360405180602001604052806000815250610cf5565b6060600061098f60075490565b905060008060005b838110156109f15733600b60006109af8460016120ac565b81526020810191909152604001600020600101546001600160a01b0316036109df576109dc6001846120ac565b92505b806109e9816120d5565b915050610997565b5060008267ffffffffffffffff811115610a0d57610a0d611e49565b604051908082528060200260200182016040528015610a4657816020015b610a33611c41565b815260200190600190039081610a2b5790505b50905060005b848110156107795733600b6000610a648460016120ac565b81526020810191909152604001600020600101546001600160a01b031603610b24576000610a938260016120ac565b6000818152600b6020908152604091829020825160a0810184528154815260018201546001600160a01b039081169382019390935260028201549092169282019290925260038201546060820152600482015460ff161515608082015285519293509091859087908110610b0957610b096120bf565b6020908102919091010152610b1f6001866120ac565b945050505b80610b2e816120d5565b915050610a4c565b6000818152600260205260408120546001600160a01b0316806104325760405162461bcd60e51b8152602060048201526018602482015277115490cdcc8c4e881a5b9d985b1a59081d1bdad95b88125160421b6044820152606401610565565b60006001600160a01b038216610c005760405162461bcd60e51b815260206004820152602960248201527f4552433732313a2061646472657373207a65726f206973206e6f7420612076616044820152683634b21037bbb732b960b91b6064820152608401610565565b506001600160a01b031660009081526003602052604090205490565b6000610c2c600780546001019055565b6000610c3760075490565b9050610c4333826114a9565b610c4d8185611634565b610c5781846116ff565b509392505050565b60606001805461044790612049565b610c79338383611809565b5050565b600a546001600160a01b03163314610cf05760405162461bcd60e51b815260206004820152603060248201527f4f6e6c79206d61726b6574706c616365206f776e65722063616e20757064617460448201526f32903634b9ba34b73390383934b1b29760811b6064820152608401610565565b600955565b610cff33836112c7565b610d1b5760405162461bcd60e51b8152600401610565906120ee565b610d27848484846118d7565b50505050565b6000818152600b6020526040812060038101546001909101546001600160a01b0316348214610dc6576040805162461bcd60e51b81526020600482015260248101919091527f506c65617365207375626d6974207468652061736b696e67207072696365206960448201527f6e206f7264657220746f20636f6d706c657465207468652070757263686173656064820152608401610565565b6000848152600b602052604090206002810180546001600160a01b0319908116331790915560048201805460ff1916600190811790915590910180549091169055610e15600880546001019055565b610e20303386611345565b600a546009546040516001600160a01b039092169181156108fc0291906000818181858888f19350505050158015610e5c573d6000803e3d6000fd5b506040516001600160a01b038216903480156108fc02916000818181858888f19350505050158015610e92573d6000803e3d6000fd5b5060408051338152600060208201529081018390526001606082015284907fb640004f1d14576d0c209e240cad0410e0d8c0c33a09375861fbadae2588a98d9060800160405180910390a2509192915050565b6060610ef0826111f7565b60008281526006602052604081208054610f0990612049565b80601f0160208091040260200160405190810160405280929190818152602001828054610f3590612049565b8015610f825780601f10610f5757610100808354040283529160200191610f82565b820191906000526020600020905b815481529060010190602001808311610f6557829003601f168201915b505050505090506000610fa060408051602081019091526000815290565b90508051600003610fb2575092915050565b815115610fe4578082604051602001610fcc92919061213b565b60405160208183030381529060405292505050919050565b610fed8461190a565b949350505050565b610ffd611c41565b506000908152600b6020908152604091829020825160a0810184528154815260018201546001600160a01b03908116938201939093526002820154909216928201929092526003820154606082015260049091015460ff161515608082015290565b6000828152600b60205260408120600201546001600160a01b031633146110db5760405162461bcd60e51b815260206004820152602a60248201527f4f6e6c79206974656d206f776e65722063616e20706572666f726d20746869736044820152691037b832b930ba34b7b760b11b6064820152608401610565565b60095434146110fc5760405162461bcd60e51b81526004016105659061216a565b6000838152600b6020526040902060048101805460ff19169055600381018390556001810180546001600160a01b03199081163317909155600290910180549091163017905561114c600861197e565b611157333085611345565b604080513381523060208201529081018390526000606082015283907fb640004f1d14576d0c209e240cad0410e0d8c0c33a09375861fbadae2588a98d9060800160405180910390a25090919050565b60006001600160e01b031982166380ac58cd60e01b14806111d857506001600160e01b03198216635b5e139f60e01b145b8061043257506301ffc9a760e01b6001600160e01b0319831614610432565b6000818152600260205260409020546001600160a01b03166112565760405162461bcd60e51b8152602060048201526018602482015277115490cdcc8c4e881a5b9d985b1a59081d1bdad95b88125160421b6044820152606401610565565b50565b600081815260046020526040902080546001600160a01b0319166001600160a01b038416908117909155819061128e82610b36565b6001600160a01b03167f8c5be1e5ebec7d5bd14f71427d1e84f3dd0314c0f7b2291e5b200ac8c7c3b92560405160405180910390a45050565b6000806112d383610b36565b9050806001600160a01b0316846001600160a01b0316148061131a57506001600160a01b0380821660009081526005602090815260408083209388168352929052205460ff165b80610fed5750836001600160a01b0316611333846104ca565b6001600160a01b031614949350505050565b826001600160a01b031661135882610b36565b6001600160a01b03161461137e5760405162461bcd60e51b8152600401610565906121ae565b6001600160a01b0382166113e05760405162461bcd60e51b8152602060048201526024808201527f4552433732313a207472616e7366657220746f20746865207a65726f206164646044820152637265737360e01b6064820152608401610565565b826001600160a01b03166113f382610b36565b6001600160a01b0316146114195760405162461bcd60e51b8152600401610565906121ae565b600081815260046020908152604080832080546001600160a01b03199081169091556001600160a01b0387811680865260038552838620805460001901905590871680865283862080546001019055868652600290945282852080549092168417909155905184937fddf252ad1be2c89b69c2b068fc378daa952ba7f163c4a11628f55a4df523b3ef91a4505050565b6001600160a01b0382166114ff5760405162461bcd60e51b815260206004820181905260248201527f4552433732313a206d696e7420746f20746865207a65726f20616464726573736044820152606401610565565b6000818152600260205260409020546001600160a01b0316156115645760405162461bcd60e51b815260206004820152601c60248201527f4552433732313a20746f6b656e20616c7265616479206d696e746564000000006044820152606401610565565b6000818152600260205260409020546001600160a01b0316156115c95760405162461bcd60e51b815260206004820152601c60248201527f4552433732313a20746f6b656e20616c7265616479206d696e746564000000006044820152606401610565565b6001600160a01b038216600081815260036020908152604080832080546001019055848352600290915280822080546001600160a01b0319168417905551839291907fddf252ad1be2c89b69c2b068fc378daa952ba7f163c4a11628f55a4df523b3ef908290a45050565b6000828152600260205260409020546001600160a01b03166116af5760405162461bcd60e51b815260206004820152602e60248201527f45524337323155524953746f726167653a2055524920736574206f66206e6f6e60448201526d32bc34b9ba32b73a103a37b5b2b760911b6064820152608401610565565b60008281526006602052604090206116c78282612241565b506040518281527ff8e1a15aba9398e019f0b49df1a4fde98ee17ae345cb5f6b5e2c27f5033e8ce79060200160405180910390a15050565b60008082116117505760405162461bcd60e51b815260206004820152601c60248201527f5072696365206d757374206265206174206c65617374203120776569000000006044820152606401610565565b60095434146117715760405162461bcd60e51b81526004016105659061216a565b6040805160a08101825284815233602080830182815230848601818152606086018981526000608088018181528c8252600b909652979097209551865591516001860180546001600160a01b03199081166001600160a01b0393841617909155925160028701805490941691161790915593516003840155516004909201805460ff1916921515929092179091556111579185611345565b816001600160a01b0316836001600160a01b03160361186a5760405162461bcd60e51b815260206004820152601960248201527f4552433732313a20617070726f766520746f2063616c6c6572000000000000006044820152606401610565565b6001600160a01b03838116600081815260056020908152604080832094871680845294825291829020805460ff191686151590811790915591519182527f17307eab39ab6107e8899845ad3d59bd9653f200f220920489ca2b5937696c31910160405180910390a3505050565b6118e2848484611345565b6118ee848484846119d5565b610d275760405162461bcd60e51b815260040161056590612301565b6060611915826111f7565b600061192c60408051602081019091526000815290565b9050600081511161194c5760405180602001604052806000815250611977565b8061195684611ad6565b60405160200161196792919061213b565b6040516020818303038152906040525b9392505050565b8054806119cd5760405162461bcd60e51b815260206004820152601b60248201527f436f756e7465723a2064656372656d656e74206f766572666c6f7700000000006044820152606401610565565b600019019055565b60006001600160a01b0384163b15611acb57604051630a85bd0160e11b81526001600160a01b0385169063150b7a0290611a19903390899088908890600401612353565b6020604051808303816000875af1925050508015611a54575060408051601f3d908101601f19168201909252611a5191810190612390565b60015b611ab1573d808015611a82576040519150601f19603f3d011682016040523d82523d6000602084013e611a87565b606091505b508051600003611aa95760405162461bcd60e51b815260040161056590612301565b805181602001fd5b6001600160e01b031916630a85bd0160e11b149050610fed565b506001949350505050565b60606000611ae383611b69565b600101905060008167ffffffffffffffff811115611b0357611b03611e49565b6040519080825280601f01601f191660200182016040528015611b2d576020820181803683370190505b5090508181016020015b600019016f181899199a1a9b1b9c1cb0b131b232b360811b600a86061a8153600a8504945084611b3757509392505050565b60008072184f03e93ff9f4daa797ed6e38ed64bf6a1f0160401b8310611ba85772184f03e93ff9f4daa797ed6e38ed64bf6a1f0160401b830492506040015b6d04ee2d6d415b85acef81000000008310611bd4576d04ee2d6d415b85acef8100000000830492506020015b662386f26fc100008310611bf257662386f26fc10000830492506010015b6305f5e1008310611c0a576305f5e100830492506008015b6127108310611c1e57612710830492506004015b60648310611c30576064830492506002015b600a83106104325760010192915050565b6040805160a08101825260008082526020820181905291810182905260608101829052608081019190915290565b6001600160e01b03198116811461125657600080fd5b600060208284031215611c9757600080fd5b813561197781611c6f565b60005b83811015611cbd578181015183820152602001611ca5565b50506000910152565b60008151808452611cde816020860160208601611ca2565b601f01601f19169290920160200192915050565b6020815260006119776020830184611cc6565b600060208284031215611d1757600080fd5b5035919050565b80356001600160a01b0381168114611d3557600080fd5b919050565b60008060408385031215611d4d57600080fd5b611d5683611d1e565b946020939093013593505050565b805182526020808201516001600160a01b039081169184019190915260408083015190911690830152606080820151908301526080908101511515910152565b6020808252825182820181905260009190848201906040850190845b81811015611de657611dd3838551611d64565b9284019260a09290920191600101611dc0565b50909695505050505050565b600080600060608486031215611e0757600080fd5b611e1084611d1e565b9250611e1e60208501611d1e565b9150604084013590509250925092565b600060208284031215611e4057600080fd5b61197782611d1e565b634e487b7160e01b600052604160045260246000fd5b600067ffffffffffffffff80841115611e7a57611e7a611e49565b604051601f8501601f19908116603f01168101908282118183101715611ea257611ea2611e49565b81604052809350858152868686011115611ebb57600080fd5b858560208301376000602087830101525050509392505050565b60008060408385031215611ee857600080fd5b823567ffffffffffffffff811115611eff57600080fd5b8301601f81018513611f1057600080fd5b611f1f85823560208401611e5f565b95602094909401359450505050565b60008060408385031215611f4157600080fd5b611f4a83611d1e565b915060208301358015158114611f5f57600080fd5b809150509250929050565b60008060008060808587031215611f8057600080fd5b611f8985611d1e565b9350611f9760208601611d1e565b925060408501359150606085013567ffffffffffffffff811115611fba57600080fd5b8501601f81018713611fcb57600080fd5b611fda87823560208401611e5f565b91505092959194509250565b60a081016104328284611d64565b6000806040838503121561200757600080fd5b50508035926020909101359150565b6000806040838503121561202957600080fd5b61203283611d1e565b915061204060208401611d1e565b90509250929050565b600181811c9082168061205d57607f821691505b60208210810361207d57634e487b7160e01b600052602260045260246000fd5b50919050565b634e487b7160e01b600052601160045260246000fd5b8181038181111561043257610432612083565b8082018082111561043257610432612083565b634e487b7160e01b600052603260045260246000fd5b6000600182016120e7576120e7612083565b5060010190565b6020808252602d908201527f4552433732313a2063616c6c6572206973206e6f7420746f6b656e206f776e6560408201526c1c881bdc88185c1c1c9bdd9959609a1b606082015260800190565b6000835161214d818460208801611ca2565b835190830190612161818360208801611ca2565b01949350505050565b60208082526024908201527f5072696365206d75737420626520657175616c20746f206c697374696e6720706040820152637269636560e01b606082015260800190565b60208082526025908201527f4552433732313a207472616e736665722066726f6d20696e636f72726563742060408201526437bbb732b960d91b606082015260800190565b601f82111561060657600081815260208120601f850160051c8101602086101561221a5750805b601f850160051c820191505b8181101561223957828155600101612226565b505050505050565b815167ffffffffffffffff81111561225b5761225b611e49565b61226f816122698454612049565b846121f3565b602080601f8311600181146122a4576000841561228c5750858301515b600019600386901b1c1916600185901b178555612239565b600085815260208120601f198616915b828110156122d3578886015182559484019460019091019084016122b4565b50858210156122f15787850151600019600388901b60f8161c191681555b5050505050600190811b01905550565b60208082526032908201527f4552433732313a207472616e7366657220746f206e6f6e20455243373231526560408201527131b2b4bb32b91034b6b83632b6b2b73a32b960711b606082015260800190565b6001600160a01b038581168252841660208201526040810183905260806060820181905260009061238690830184611cc6565b9695505050505050565b6000602082840312156123a257600080fd5b815161197781611c6f56fea26469706673582212206eb9b1654ff6a48caeb1c6988146812952d474cd016337ae215ef08bb283fb4b64736f6c63430008130033",
  "linkReferences": {},
  "deployedLinkReferences": {}
}